{
    "_format": "hh-sol-artifact-1",
    "contractName": "YandaExtendedProtocol",
    "sourceName": "contracts/YandaExtendedProtocol.sol",
    "abi": [
        {
            "inputs": [],
            "stateMutability": "nonpayable",
            "type": "constructor"
        },
        {
            "anonymous": false,
            "inputs": [
                {
                    "indexed": true,
                    "internalType": "address",
                    "name": "customer",
                    "type": "address"
                },
                {
                    "indexed": true,
                    "internalType": "address",
                    "name": "service",
                    "type": "address"
                },
                {
                    "indexed": true,
                    "internalType": "bytes32",
                    "name": "productId",
                    "type": "bytes32"
                },
                {
                    "indexed": false,
                    "internalType": "string",
                    "name": "data",
                    "type": "string"
                }
            ],
            "name": "Action",
            "type": "event"
        },
        {
            "anonymous": false,
            "inputs": [
                {
                    "indexed": true,
                    "internalType": "address",
                    "name": "customer",
                    "type": "address"
                },
                {
                    "indexed": true,
                    "internalType": "address",
                    "name": "service",
                    "type": "address"
                },
                {
                    "indexed": true,
                    "internalType": "bytes32",
                    "name": "productId",
                    "type": "bytes32"
                },
                {
                    "indexed": false,
                    "internalType": "bool",
                    "name": "success",
                    "type": "bool"
                }
            ],
            "name": "Complete",
            "type": "event"
        },
        {
            "anonymous": false,
            "inputs": [
                {
                    "indexed": true,
                    "internalType": "address",
                    "name": "customer",
                    "type": "address"
                },
                {
                    "indexed": true,
                    "internalType": "address",
                    "name": "service",
                    "type": "address"
                },
                {
                    "indexed": true,
                    "internalType": "bytes32",
                    "name": "productId",
                    "type": "bytes32"
                },
                {
                    "indexed": false,
                    "internalType": "address[]",
                    "name": "validatorsList",
                    "type": "address[]"
                },
                {
                    "indexed": false,
                    "internalType": "string",
                    "name": "data",
                    "type": "string"
                }
            ],
            "name": "CostRequest",
            "type": "event"
        },
        {
            "anonymous": false,
            "inputs": [
                {
                    "indexed": true,
                    "internalType": "address",
                    "name": "customer",
                    "type": "address"
                },
                {
                    "indexed": true,
                    "internalType": "address",
                    "name": "service",
                    "type": "address"
                },
                {
                    "indexed": true,
                    "internalType": "bytes32",
                    "name": "productId",
                    "type": "bytes32"
                },
                {
                    "indexed": false,
                    "internalType": "uint256",
                    "name": "cost",
                    "type": "uint256"
                }
            ],
            "name": "CostResponse",
            "type": "event"
        },
        {
            "anonymous": false,
            "inputs": [
                {
                    "indexed": true,
                    "internalType": "address",
                    "name": "customer",
                    "type": "address"
                },
                {
                    "indexed": true,
                    "internalType": "address",
                    "name": "service",
                    "type": "address"
                },
                {
                    "indexed": true,
                    "internalType": "bytes32",
                    "name": "productId",
                    "type": "bytes32"
                },
                {
                    "indexed": false,
                    "internalType": "uint256",
                    "name": "weiAmount",
                    "type": "uint256"
                }
            ],
            "name": "Deposit",
            "type": "event"
        },
        {
            "anonymous": false,
            "inputs": [
                {
                    "indexed": true,
                    "internalType": "bytes32",
                    "name": "role",
                    "type": "bytes32"
                },
                {
                    "indexed": true,
                    "internalType": "bytes32",
                    "name": "previousAdminRole",
                    "type": "bytes32"
                },
                {
                    "indexed": true,
                    "internalType": "bytes32",
                    "name": "newAdminRole",
                    "type": "bytes32"
                }
            ],
            "name": "RoleAdminChanged",
            "type": "event"
        },
        {
            "anonymous": false,
            "inputs": [
                {
                    "indexed": true,
                    "internalType": "bytes32",
                    "name": "role",
                    "type": "bytes32"
                },
                {
                    "indexed": true,
                    "internalType": "address",
                    "name": "account",
                    "type": "address"
                },
                {
                    "indexed": true,
                    "internalType": "address",
                    "name": "sender",
                    "type": "address"
                }
            ],
            "name": "RoleGranted",
            "type": "event"
        },
        {
            "anonymous": false,
            "inputs": [
                {
                    "indexed": true,
                    "internalType": "bytes32",
                    "name": "role",
                    "type": "bytes32"
                },
                {
                    "indexed": true,
                    "internalType": "address",
                    "name": "account",
                    "type": "address"
                },
                {
                    "indexed": true,
                    "internalType": "address",
                    "name": "sender",
                    "type": "address"
                }
            ],
            "name": "RoleRevoked",
            "type": "event"
        },
        {
            "anonymous": false,
            "inputs": [
                {
                    "indexed": true,
                    "internalType": "address",
                    "name": "staker",
                    "type": "address"
                },
                {
                    "indexed": true,
                    "internalType": "address",
                    "name": "validator",
                    "type": "address"
                },
                {
                    "indexed": false,
                    "internalType": "uint256",
                    "name": "amount",
                    "type": "uint256"
                },
                {
                    "indexed": false,
                    "internalType": "uint256",
                    "name": "unlockingBlock",
                    "type": "uint256"
                }
            ],
            "name": "Staked",
            "type": "event"
        },
        {
            "anonymous": false,
            "inputs": [
                {
                    "indexed": true,
                    "internalType": "address",
                    "name": "customer",
                    "type": "address"
                },
                {
                    "indexed": true,
                    "internalType": "address",
                    "name": "service",
                    "type": "address"
                },
                {
                    "indexed": true,
                    "internalType": "bytes32",
                    "name": "productId",
                    "type": "bytes32"
                },
                {
                    "indexed": false,
                    "internalType": "address[]",
                    "name": "validatorsList",
                    "type": "address[]"
                }
            ],
            "name": "Terminate",
            "type": "event"
        },
        {
            "anonymous": false,
            "inputs": [
                {
                    "indexed": true,
                    "internalType": "address",
                    "name": "staker",
                    "type": "address"
                },
                {
                    "indexed": true,
                    "internalType": "address",
                    "name": "validator",
                    "type": "address"
                },
                {
                    "indexed": false,
                    "internalType": "uint256",
                    "name": "amount",
                    "type": "uint256"
                }
            ],
            "name": "UnStaked",
            "type": "event"
        },
        {
            "inputs": [],
            "name": "DEFAULT_ADMIN_ROLE",
            "outputs": [
                {
                    "internalType": "bytes32",
                    "name": "",
                    "type": "bytes32"
                }
            ],
            "stateMutability": "view",
            "type": "function"
        },
        {
            "inputs": [],
            "name": "TIME_FRAME_SIZE",
            "outputs": [
                {
                    "internalType": "uint256",
                    "name": "",
                    "type": "uint256"
                }
            ],
            "stateMutability": "view",
            "type": "function"
        },
        {
            "inputs": [
                {
                    "internalType": "address",
                    "name": "service",
                    "type": "address"
                },
                {
                    "internalType": "address payable",
                    "name": "depositAddr",
                    "type": "address"
                },
                {
                    "internalType": "address[]",
                    "name": "vList",
                    "type": "address[]"
                }
            ],
            "name": "addService",
            "outputs": [],
            "stateMutability": "nonpayable",
            "type": "function"
        },
        {
            "inputs": [
                {
                    "internalType": "address",
                    "name": "service",
                    "type": "address"
                },
                {
                    "internalType": "bytes32",
                    "name": "productId",
                    "type": "bytes32"
                },
                {
                    "internalType": "string",
                    "name": "data",
                    "type": "string"
                }
            ],
            "name": "createProcess",
            "outputs": [],
            "stateMutability": "nonpayable",
            "type": "function"
        },
        {
            "inputs": [
                {
                    "internalType": "address",
                    "name": "customer",
                    "type": "address"
                },
                {
                    "internalType": "bytes32",
                    "name": "productId",
                    "type": "bytes32"
                },
                {
                    "internalType": "string",
                    "name": "data",
                    "type": "string"
                }
            ],
            "name": "declareAction",
            "outputs": [],
            "stateMutability": "nonpayable",
            "type": "function"
        },
        {
            "inputs": [],
            "name": "getLockingPeriod",
            "outputs": [
                {
                    "internalType": "uint256",
                    "name": "",
                    "type": "uint256"
                }
            ],
            "stateMutability": "view",
            "type": "function"
        },
        {
            "inputs": [],
            "name": "getPenaltyPerc",
            "outputs": [
                {
                    "internalType": "uint256",
                    "name": "",
                    "type": "uint256"
                }
            ],
            "stateMutability": "view",
            "type": "function"
        },
        {
            "inputs": [
                {
                    "internalType": "address",
                    "name": "customer",
                    "type": "address"
                },
                {
                    "internalType": "bytes32",
                    "name": "productId",
                    "type": "bytes32"
                }
            ],
            "name": "getProcess",
            "outputs": [
                {
                    "components": [
                        {
                            "internalType": "enum YandaExtendedProtocol.State",
                            "name": "state",
                            "type": "uint8"
                        },
                        {
                            "internalType": "uint256",
                            "name": "cost",
                            "type": "uint256"
                        },
                        {
                            "internalType": "uint256",
                            "name": "costConf",
                            "type": "uint256"
                        },
                        {
                            "internalType": "uint256",
                            "name": "fee",
                            "type": "uint256"
                        },
                        {
                            "internalType": "address",
                            "name": "service",
                            "type": "address"
                        },
                        {
                            "internalType": "bytes32",
                            "name": "productId",
                            "type": "bytes32"
                        },
                        {
                            "internalType": "string",
                            "name": "productData",
                            "type": "string"
                        },
                        {
                            "internalType": "uint256",
                            "name": "startBlock",
                            "type": "uint256"
                        },
                        {
                            "internalType": "address[]",
                            "name": "validatorsList",
                            "type": "address[]"
                        },
                        {
                            "internalType": "address",
                            "name": "firstValidator",
                            "type": "address"
                        },
                        {
                            "internalType": "bool",
                            "name": "firstResult",
                            "type": "bool"
                        },
                        {
                            "internalType": "address",
                            "name": "secondValidator",
                            "type": "address"
                        },
                        {
                            "internalType": "bool",
                            "name": "secondResult",
                            "type": "bool"
                        }
                    ],
                    "internalType": "struct YandaExtendedProtocol.Process",
                    "name": "",
                    "type": "tuple"
                }
            ],
            "stateMutability": "view",
            "type": "function"
        },
        {
            "inputs": [
                {
                    "internalType": "bytes32",
                    "name": "role",
                    "type": "bytes32"
                }
            ],
            "name": "getRoleAdmin",
            "outputs": [
                {
                    "internalType": "bytes32",
                    "name": "",
                    "type": "bytes32"
                }
            ],
            "stateMutability": "view",
            "type": "function"
        },
        {
            "inputs": [
                {
                    "internalType": "address",
                    "name": "service",
                    "type": "address"
                }
            ],
            "name": "getValidatorVer",
            "outputs": [
                {
                    "internalType": "uint256",
                    "name": "",
                    "type": "uint256"
                }
            ],
            "stateMutability": "view",
            "type": "function"
        },
        {
            "inputs": [
                {
                    "internalType": "bytes32",
                    "name": "role",
                    "type": "bytes32"
                },
                {
                    "internalType": "address",
                    "name": "account",
                    "type": "address"
                }
            ],
            "name": "grantRole",
            "outputs": [],
            "stateMutability": "nonpayable",
            "type": "function"
        },
        {
            "inputs": [
                {
                    "internalType": "bytes32",
                    "name": "role",
                    "type": "bytes32"
                },
                {
                    "internalType": "address",
                    "name": "account",
                    "type": "address"
                }
            ],
            "name": "hasRole",
            "outputs": [
                {
                    "internalType": "bool",
                    "name": "",
                    "type": "bool"
                }
            ],
            "stateMutability": "view",
            "type": "function"
        },
        {
            "inputs": [
                {
                    "internalType": "uint256",
                    "name": "penaltyPerc",
                    "type": "uint256"
                },
                {
                    "internalType": "uint256",
                    "name": "lockingPeriod",
                    "type": "uint256"
                },
                {
                    "internalType": "address",
                    "name": "token",
                    "type": "address"
                }
            ],
            "name": "initialize",
            "outputs": [],
            "stateMutability": "nonpayable",
            "type": "function"
        },
        {
            "inputs": [
                {
                    "internalType": "bytes32",
                    "name": "role",
                    "type": "bytes32"
                },
                {
                    "internalType": "address",
                    "name": "account",
                    "type": "address"
                }
            ],
            "name": "renounceRole",
            "outputs": [],
            "stateMutability": "nonpayable",
            "type": "function"
        },
        {
            "inputs": [
                {
                    "internalType": "bytes32",
                    "name": "role",
                    "type": "bytes32"
                },
                {
                    "internalType": "address",
                    "name": "account",
                    "type": "address"
                }
            ],
            "name": "revokeRole",
            "outputs": [],
            "stateMutability": "nonpayable",
            "type": "function"
        },
        {
            "inputs": [
                {
                    "internalType": "uint256",
                    "name": "vPerc",
                    "type": "uint256"
                },
                {
                    "internalType": "uint256",
                    "name": "bPerc",
                    "type": "uint256"
                }
            ],
            "name": "setDefaultPerc",
            "outputs": [],
            "stateMutability": "nonpayable",
            "type": "function"
        },
        {
            "inputs": [
                {
                    "internalType": "address payable",
                    "name": "depositAddr",
                    "type": "address"
                }
            ],
            "name": "setDepositAddr",
            "outputs": [],
            "stateMutability": "nonpayable",
            "type": "function"
        },
        {
            "inputs": [
                {
                    "internalType": "uint256",
                    "name": "newLockingPeriod",
                    "type": "uint256"
                }
            ],
            "name": "setLockingPeriod",
            "outputs": [],
            "stateMutability": "nonpayable",
            "type": "function"
        },
        {
            "inputs": [
                {
                    "internalType": "uint256",
                    "name": "newPenaltyPerc",
                    "type": "uint256"
                }
            ],
            "name": "setPenaltyPerc",
            "outputs": [],
            "stateMutability": "nonpayable",
            "type": "function"
        },
        {
            "inputs": [
                {
                    "internalType": "address",
                    "name": "customer",
                    "type": "address"
                },
                {
                    "internalType": "bytes32",
                    "name": "productId",
                    "type": "bytes32"
                },
                {
                    "internalType": "uint256",
                    "name": "cost",
                    "type": "uint256"
                }
            ],
            "name": "setProcessCost",
            "outputs": [],
            "stateMutability": "nonpayable",
            "type": "function"
        },
        {
            "inputs": [
                {
                    "internalType": "uint256",
                    "name": "nominator",
                    "type": "uint256"
                },
                {
                    "internalType": "uint256",
                    "name": "denominator",
                    "type": "uint256"
                }
            ],
            "name": "setProtocolFee",
            "outputs": [],
            "stateMutability": "nonpayable",
            "type": "function"
        },
        {
            "inputs": [
                {
                    "internalType": "address",
                    "name": "service",
                    "type": "address"
                },
                {
                    "internalType": "uint256",
                    "name": "vPerc",
                    "type": "uint256"
                },
                {
                    "internalType": "uint256",
                    "name": "bPerc",
                    "type": "uint256"
                }
            ],
            "name": "setServicePerc",
            "outputs": [],
            "stateMutability": "nonpayable",
            "type": "function"
        },
        {
            "inputs": [
                {
                    "internalType": "uint256",
                    "name": "vVer",
                    "type": "uint256"
                }
            ],
            "name": "setValidatorVer",
            "outputs": [],
            "stateMutability": "nonpayable",
            "type": "function"
        },
        {
            "inputs": [
                {
                    "internalType": "address[]",
                    "name": "vList",
                    "type": "address[]"
                }
            ],
            "name": "setValidators",
            "outputs": [],
            "stateMutability": "nonpayable",
            "type": "function"
        },
        {
            "inputs": [
                {
                    "internalType": "address",
                    "name": "validator",
                    "type": "address"
                },
                {
                    "internalType": "uint256",
                    "name": "amount",
                    "type": "uint256"
                }
            ],
            "name": "stake",
            "outputs": [],
            "stateMutability": "nonpayable",
            "type": "function"
        },
        {
            "inputs": [
                {
                    "internalType": "address",
                    "name": "staker",
                    "type": "address"
                },
                {
                    "internalType": "address",
                    "name": "validator",
                    "type": "address"
                }
            ],
            "name": "stakeOf",
            "outputs": [
                {
                    "components": [
                        {
                            "internalType": "uint256",
                            "name": "amount",
                            "type": "uint256"
                        },
                        {
                            "internalType": "uint256",
                            "name": "unlockingBlock",
                            "type": "uint256"
                        }
                    ],
                    "internalType": "struct YandaExtendedProtocol.Stake",
                    "name": "",
                    "type": "tuple"
                }
            ],
            "stateMutability": "view",
            "type": "function"
        },
        {
            "inputs": [],
            "name": "stakingTokenAddr",
            "outputs": [
                {
                    "internalType": "address",
                    "name": "",
                    "type": "address"
                }
            ],
            "stateMutability": "view",
            "type": "function"
        },
        {
            "inputs": [
                {
                    "internalType": "address",
                    "name": "customer",
                    "type": "address"
                },
                {
                    "internalType": "bytes32",
                    "name": "productId",
                    "type": "bytes32"
                }
            ],
            "name": "startTermination",
            "outputs": [],
            "stateMutability": "nonpayable",
            "type": "function"
        },
        {
            "inputs": [
                {
                    "internalType": "bytes4",
                    "name": "interfaceId",
                    "type": "bytes4"
                }
            ],
            "name": "supportsInterface",
            "outputs": [
                {
                    "internalType": "bool",
                    "name": "",
                    "type": "bool"
                }
            ],
            "stateMutability": "view",
            "type": "function"
        },
        {
            "inputs": [],
            "name": "totalStaked",
            "outputs": [
                {
                    "internalType": "uint256",
                    "name": "",
                    "type": "uint256"
                }
            ],
            "stateMutability": "view",
            "type": "function"
        },
        {
            "inputs": [
                {
                    "internalType": "address",
                    "name": "validator",
                    "type": "address"
                },
                {
                    "internalType": "uint256",
                    "name": "amount",
                    "type": "uint256"
                }
            ],
            "name": "unStake",
            "outputs": [],
            "stateMutability": "nonpayable",
            "type": "function"
        },
        {
            "inputs": [
                {
                    "internalType": "address",
                    "name": "customer",
                    "type": "address"
                },
                {
                    "internalType": "bytes32",
                    "name": "productId",
                    "type": "bytes32"
                },
                {
                    "internalType": "bool",
                    "name": "result",
                    "type": "bool"
                }
            ],
            "name": "validateTermination",
            "outputs": [],
            "stateMutability": "nonpayable",
            "type": "function"
        },
        {
            "stateMutability": "payable",
            "type": "receive"
        }
    ],
    "bytecode": "0x60806040523480156200001157600080fd5b50600054610100900460ff166200002f5760005460ff161562000039565b62000039620000de565b620000a15760405162461bcd60e51b815260206004820152602e60248201527f496e697469616c697a61626c653a20636f6e747261637420697320616c72656160448201526d191e481a5b9a5d1a585b1a5e995960921b606482015260840160405180910390fd5b600054610100900460ff16158015620000c4576000805461ffff19166101011790555b8015620000d7576000805461ff00191690555b5062000102565b6000620000f630620000fc60201b620025921760201c565b15905090565b3b151590565b61426780620001126000396000f3fe6080604052600436106101775760003560e01c806301ffc9a71461037b57806304f32b5d146103b05780630cb395db146103d25780630e53e63314610419578063240de27714610439578063248a9ca31461045957806326b321d1146104795780632f2ff15d146104995780633293025c146104b957806336568abe146104d957806338f8f528146104f9578063402fbbd81461051957806343c51cc91461052e57806363de06f81461054e57806371d7898e1461056e578063817b1cd21461058e5780638670fdd9146105a357806389bf146a146105b85780638d3ed0f1146105d857806391d14854146106005780639300c92614610620578063a217fddf14610640578063a4e30a1314610655578063a6ab36f21461066a578063adc9772e1461068a578063cbd206b5146106aa578063ce4cb876146106ca578063d547741f1461074e578063d93938141461076e578063e9b873871461078e578063ef4604a9146107bb578063fd6d2dcf146107db57610376565b3661037657336000818152609f6020908152604080832060a083528184205484529091529020805460019060ff1660048111156101c457634e487b7160e01b600052602160045260246000fd5b146102465760405162461bcd60e51b815260206004820152604160248201527f596f7520646f6e277420686176652061206465706f736974206177616974696e60448201527f672070726f636573732c20706c656173652063726561746520697420666972736064820152601d60fa1b608482015260a4015b60405180910390fd5b348160010154146102b95760405162461bcd60e51b815260206004820152603760248201527f4465706f73697420616d6f756e7420646f65736e2774206d61746368207769746044820152761a081d1a19481c995c5d595cdd19590819195c1bdcda5d604a1b606482015260840161023d565b60048101546001600160a01b03908116600090815260a16020526040902080546003840154919216906108fc906102f19034906107fb565b6040518115909202916000818181858888f19350505050158015610319573d6000803e3d6000fd5b50815460ff19166002178255600582015460048301546040513481526001600160a01b03918216918616907f1f0f1dee49a1720a0d98e3a0575a04dd9f143ff5e29555c3085471c1c70eed5b9060200160405180910390a4505050005b600080fd5b34801561038757600080fd5b5061039b610396366004613a9f565b610810565b60405190151581526020015b60405180910390f35b3480156103bc57600080fd5b506103d06103cb36600461389f565b610845565b005b3480156103de57600080fd5b5061040b6103ed366004613780565b6001600160a01b0316600090815260a1602052604090206004015490565b6040519081526020016103a7565b34801561042557600080fd5b506103d0610434366004613833565b6108c8565b34801561044557600080fd5b506103d0610454366004613ac7565b610aa1565b34801561046557600080fd5b5061040b610474366004613a63565b610aba565b34801561048557600080fd5b506103d0610494366004613a63565b610acf565b3480156104a557600080fd5b506103d06104b4366004613a7b565b610ae1565b3480156104c557600080fd5b506103d06104d4366004613a63565b610b03565b3480156104e557600080fd5b506103d06104f4366004613a7b565b610b15565b34801561050557600080fd5b506103d0610514366004613922565b610b93565b34801561052557600080fd5b50609c5461040b565b34801561053a57600080fd5b506103d06105493660046139cd565b610f86565b34801561055a57600080fd5b506103d0610569366004613a63565b6113a8565b34801561057a57600080fd5b506103d06105893660046137d4565b6113ec565b34801561059a57600080fd5b50609d5461040b565b3480156105af57600080fd5b50609b5461040b565b3480156105c457600080fd5b506103d06105d336600461385e565b6114e5565b3480156105e457600080fd5b50609e546040516001600160a01b0390911681526020016103a7565b34801561060c57600080fd5b5061039b61061b366004613a7b565b611a13565b34801561062c57600080fd5b506103d061063b366004613a15565b611a3e565b34801561064c57600080fd5b5061040b600081565b34801561066157600080fd5b5061040b600281565b34801561067657600080fd5b506103d0610685366004613ae8565b611a93565b34801561069657600080fd5b506103d06106a5366004613833565b611b9b565b3480156106b657600080fd5b506103d06106c5366004613780565b611f2b565b3480156106d657600080fd5b506107336106e536600461379c565b604080518082018252600080825260209182018190526001600160a01b03948516815260a4825282812093909416845291825291829020825180840190935280548352600101549082015290565b604080518251815260209283015192810192909252016103a7565b34801561075a57600080fd5b506103d0610769366004613a7b565b611f89565b34801561077a57600080fd5b506103d0610789366004613833565b611fa6565b34801561079a57600080fd5b506107ae6107a9366004613833565b6122e7565b6040516103a79190613f21565b3480156107c757600080fd5b506103d06107d6366004613a01565b612546565b3480156107e757600080fd5b506103d06107f6366004613ac7565b61257a565b60006108078284614088565b90505b92915050565b60006001600160e01b03198216637965db0b60e01b148061080a57506301ffc9a760e01b6001600160e01b031983161461080a565b33600090815260a160205260409020600101546108745760405162461bcd60e51b815260040161023d90613e95565b82336001600160a01b0316856001600160a01b03167fb67fab32200b6a6d186136689c0b4c4072ae0bd5dd17b98fb8105d1b9747939985856040516108ba929190613d5a565b60405180910390a450505050565b33600090815260a160205260409020600201541515806108f05750336001600160a01b038316145b61095a5760405162461bcd60e51b815260206004820152603560248201527f4f6e6c792073657276696365206f722070726f6475637420637573746f6d65726044820152740818d85b8818d85b1b081d1a1a5cc81b595d1a1bd9605a1b606482015260840161023d565b6001600160a01b0382166000908152609f6020908152604080832084845290915290206002815460ff1660048111156109a357634e487b7160e01b600052602160045260246000fd5b14610a025760405162461bcd60e51b815260206004820152602960248201527f43616e6e6f74207374617274207465726d696e6174696f6e2c20636865636b2060448201526874686520737461746560b81b606482015260840161023d565b805460ff191660031781554360078201556004810154610a2d906001600160a01b0316600080612598565b8051610a439160088401916020909101906135ba565b506009810180546001600160a81b0319908116909155600a820180549091169055604051829033906001600160a01b0386169060008051602061421283398151915290610a94906008870190613c5d565b60405180910390a4505050565b6000610aae81335b612a06565b50609991909155609a55565b60009081526065602052604090206001015490565b6000610adb8133610aa9565b50609c55565b610aea82610aba565b610af48133610aa9565b610afe8383612a6a565b505050565b6000610b0f8133610aa9565b50609b55565b6001600160a01b0381163314610b855760405162461bcd60e51b815260206004820152602f60248201527f416363657373436f6e74726f6c3a2063616e206f6e6c792072656e6f756e636560448201526e103937b632b9903337b91039b2b63360891b606482015260840161023d565b610b8f8282612af0565b5050565b6001600160a01b038316600090815260a16020526040902060020154610c075760405162461bcd60e51b815260206004820152602360248201527f52657175657374656420736572766963652061646472657373206e6f7420666f6044820152621d5b9960ea1b606482015260840161023d565b336000908152609f602090815260408083208584529091529020600401546001600160a01b031615610c925760405162461bcd60e51b815260206004820152602e60248201527f50726f636573732077697468207370656369666965642070726f64756374496460448201526d08185b1c9958591e48195e1a5cdd60921b606482015260840161023d565b604080516101a081019091528060008152602001600081526020016000815260200160008152602001846001600160a01b03168152602001838152602001828152602001438152602001610ce885600080612598565b8152600060208083018290526040808401839052606084018390526080909301829052338252609f815282822086835290522081518154829060ff19166001836004811115610d4757634e487b7160e01b600052602160045260246000fd5b02179055506020828101516001830155604083015160028301556060830151600383015560808301516004830180546001600160a01b0319166001600160a01b0390921691909117905560a0830151600583015560c08301518051610db2926006850192019061361f565b5060e082015160078201556101008201518051610dd99160088401916020909101906135ba565b506101208201516009820180546101408501511515600160a01b9081026001600160a81b03199283166001600160a01b039586161717909255610160850151600a9094018054610180909601511515909202941692821692909217929092179055336000818152609f602090815260408083208784529091529081902090518593871692916000805160206141b283398151915291610e7d91600801908790613c70565b60405180910390a4336000908152609f6020908152604080832060a0835281842054845290915290205460019060ff166004811115610ecc57634e487b7160e01b600052602160045260246000fd5b1415610f7257336000908152609f6020908152604080832060a083528184205484529091528120805460ff191681556001810182905560028101829055600381018290556004810180546001600160a01b03191690556005810182905590610f376006830182613693565b6007820160009055600882016000610f4f91906136d2565b506009810180546001600160a81b0319908116909155600a909101805490911690555b5033600090815260a0602052604090205550565b33600090815260a26020526040902054610fb25760405162461bcd60e51b815260040161023d90613d9c565b6001600160a01b038084166000908152609f6020908152604080832086845282528083206004810154909416835260a18252918290206001018054835181840281018401909452808452611045939283018282801561103a57602002820191906000526020600020905b81546001600160a01b0316815260019091019060200180831161101c575b505050505033612b57565b6110615760405162461bcd60e51b815260040161023d90613e38565b6000815460ff16600481111561108757634e487b7160e01b600052602160045260246000fd5b146110e05760405162461bcd60e51b8152602060048201526024808201527f436f737420697320616c7265616479207365742c20636865636b2074686520736044820152637461746560e01b606482015260840161023d565b61114d8160080180548060200260200160405190810160405280929190818152602001828054801561113b57602002820191906000526020600020905b81546001600160a01b0316815260019091019060200180831161111d575b50505050503383600701546002612bcb565b6111695760405162461bcd60e51b815260040161023d90613deb565b60098101546001600160a01b031661121d576009810180546001600160a01b031916339081179091556001820183905543600783015560048201546111bc916001600160a01b0391909116906000612598565b80516111d29160088401916020909101906135ba565b50600481015460405184916001600160a01b0390811691908716906000805160206141b2833981519152906112109060088701906006880190613c9e565b60405180910390a46113a2565b600a8101546001600160a01b03166112f857600a810180546001600160a01b031916331790556002810182905560018101548214156112c557611277609a5461127160995485612c7f90919063ffffffff16565b90612c8b565b6003820155805460ff19166001178155600481015460405183815284916001600160a01b0390811691908716906000805160206141f2833981519152906020015b60405180910390a46112f3565b43600782015560048101546009820154600a8301546111bc926001600160a01b039081169281169116612598565b6113a2565b818160010154141561132457600a810180546001600160a01b0319163317905560028101829055611340565b6009810180546001600160a01b03191633179055600181018290555b60018101829055609a5460995461135d9190611271908590612c7f565b6003820155805460ff19166001178155600481015460405183815284916001600160a01b0390811691908716906000805160206141f2833981519152906020016108ba565b50505050565b33600090815260a160205260409020600101546113d75760405162461bcd60e51b815260040161023d90613e95565b33600090815260a16020526040902060040155565b60006113f88133610aa9565b60028251116114495760405162461bcd60e51b815260206004820181905260248201527f56616c696461746f7273206d696e696d756d207175616e746974792069732033604482015260640161023d565b6040805160a0810182526001600160a01b0385811682526020808301868152609754848601526098546060850152600160808501819052898416600090815260a1845295909520845181546001600160a01b0319169416939093178355518051939492936114be9385019291909101906135ba565b50604082015160028201556060820151600382015560809091015160049091015550505050565b33600090815260a260205260409020546115115760405162461bcd60e51b815260040161023d90613d9c565b6001600160a01b038084166000908152609f6020908152604080832086845282528083206004810154909416835260a182529182902060010180548351818402810184019094528084526115a2939283018282801561103a576020028201919060005260206000209081546001600160a01b0316815260019091019060200180831161101c57505050505033612b57565b6115be5760405162461bcd60e51b815260040161023d90613e38565b6003815460ff1660048111156115e457634e487b7160e01b600052602160045260246000fd5b146116435760405162461bcd60e51b815260206004820152602960248201527f43616e6e6f74206163636570742076616c69646174696f6e2c20636865636b2060448201526874686520737461746560b81b606482015260840161023d565b6116ae8160080180548060200260200160405190810160405280929190818152602001828054801561113b576020028201919060005260206000209081546001600160a01b0316815260019091019060200180831161111d5750505050503383600701546002612bcb565b6116ca5760405162461bcd60e51b815260040161023d90613deb565b60098101546001600160a01b0316611775576009810180546001600160a81b0319163360ff60a01b191617600160a01b8415150217908190554360078301556004820154611726916001600160a01b0391821691166000612598565b805161173c9160088401916020909101906135ba565b50600481015460405184916001600160a01b03908116919087169060008051602061421283398151915290611210906008870190613c5d565b600a8101546001600160a01b031661187157600a810180546001600160a81b0319163360ff60a01b191617600160a01b8415158102919091179182905560098301549181900460ff9081161515919092049190911615151415611843576117f184848360090160149054906101000a900460ff16156000612c97565b8054600460ff19909116811782558101546009820154604051600160a01b90910460ff161515815284916001600160a01b0390811691908716906000805160206141d2833981519152906020016112b8565b43600782015560048101546009820154600a830154611726926001600160a01b039081169281169116612598565b600981015460ff600160a01b909104161515821515141561192b57609b54600a8201546001600160a01b0316600090815260a2602052604081205490916118bf916064916112719190612c7f565b600a8301549091506000906118dd906001600160a01b031683612e04565b600a840180546001600160a81b0319163360ff60a01b191617600160a01b8715158102919091179091556009850154919250611924918891889160ff919004161584612c97565b50506119c1565b609b5460098201546001600160a01b0316600090815260a26020526040812054909161195e916064916112719190612c7f565b600983015490915060009061197c906001600160a01b031683612e04565b6009840180546001600160a81b0319163360ff60a01b191617600160a01b871515810291909117918290559192506119be918891889160ff9104161584612c97565b50505b8054600460ff19909116811782558101546009820154604051600160a01b90910460ff161515815284916001600160a01b0390811691908716906000805160206141d2833981519152906020016108ba565b60009182526065602090815260408084206001600160a01b0393909316845291905290205460ff1690565b33600090815260a16020526040902060010154611a6d5760405162461bcd60e51b815260040161023d90613e95565b33600090815260a1602090815260409091208251610b8f926001909201918401906135ba565b600054610100900460ff16611aae5760005460ff1615611ab2565b303b155b611b155760405162461bcd60e51b815260206004820152602e60248201527f496e697469616c697a61626c653a20636f6e747261637420697320616c72656160448201526d191e481a5b9a5d1a585b1a5e995960921b606482015260840161023d565b600054610100900460ff16158015611b37576000805461ffff19166101011790555b611b3f612f43565b611b4a600033612a6a565b609b849055609c839055609e80546001600160a01b0319166001600160a01b038416179055600f609755605060985560026099556103e8609a5580156113a2576000805461ff001916905550505050565b6001600160a01b038216611bf15760405162461bcd60e51b815260206004820152601d60248201527f56616c696461746f7220616464726573732063616e6e6f742062652030000000604482015260640161023d565b60008111611c325760405162461bcd60e51b815260206004820152600e60248201526d043616e6e6f74207374616b6520360941b604482015260640161023d565b609e546040516323b872dd60e01b8152336004820152306024820152604481018390526000916001600160a01b0316906323b872dd90606401602060405180830381600087803b158015611c8557600080fd5b505af1158015611c99573d6000803e3d6000fd5b505050506040513d601f19601f82011682018060405250810190611cbd9190613a47565b90508015611ed857609d54611cd29083612f84565b609d5533600090815260a4602090815260408083206001600160a01b038716845290915281205415611d02575060015b33600090815260a4602090815260408083206001600160a01b0388168452909152902054611d309084612f84565b33600090815260a4602090815260408083206001600160a01b0389168452909152902055609c54611d61904361403d565b33600090815260a4602090815260408083206001600160a01b038916845282528083206001019390935560a290522054611d9b9084612f84565b6001600160a01b038516600090815260a2602052604090205580158015611e3357506001600160a01b038416600090815260a360209081526040918290208054835181840281018401909452808452611e31939283018282801561103a576020028201919060005260206000209081546001600160a01b0316815260019091019060200180831161101c57505050505033612b57565b155b15611e71576001600160a01b038416600090815260a3602090815260408220805460018101825590835291200180546001600160a01b031916331790555b33600081815260a4602090815260408083206001600160a01b03891680855290835292819020600101548151888152928301529192917f6c86f3fd5118b3aa8bb4f389a617046de0a3d3d477de1a1673d227f802f616dc910160405180910390a350610afe565b60405162461bcd60e51b815260206004820152602260248201527f5761736e27742061626c6520746f207472616e7366657220796f757220746f6b60448201526132b760f11b606482015260840161023d565b33600090815260a16020526040902060010154611f5a5760405162461bcd60e51b815260040161023d90613e95565b33600090815260a16020526040902080546001600160a01b0319166001600160a01b0392909216919091179055565b611f9282610aba565b611f9c8133610aa9565b610afe8383612af0565b60008111611fe95760405162461bcd60e51b815260206004820152601060248201526f043616e6e6f7420756e7374616b6520360841b604482015260640161023d565b33600090815260a4602090815260408083206001600160a01b038616845290915290205481111561208e5760405162461bcd60e51b815260206004820152604360248201527f596f75722062616c616e6365206973206c6f776572207468616e20746865206160448201527f6d6f756e74206f6620746f6b656e7320796f752077616e7420746f20756e7374606482015262616b6560e81b608482015260a40161023d565b33600090815260a4602090815260408083206001600160a01b038616845290915290206001015443101561211f5760405162461bcd60e51b815260206004820152603260248201527f546865206c6f636b696e6720706572696f64206469646e277420706173732c20604482015271796f752063616e6e6f7420756e7374616b6560701b606482015260840161023d565b609e5460405163a9059cbb60e01b8152336004820152602481018390526000916001600160a01b03169063a9059cbb90604401602060405180830381600087803b15801561216c57600080fd5b505af1158015612180573d6000803e3d6000fd5b505050506040513d601f19601f820116820180604052508101906121a49190613a47565b905080156122885781609d60008282546121be9190614088565b909155505033600090815260a4602090815260408083206001600160a01b03871684529091529020546121f2908390614088565b33600090815260a4602090815260408083206001600160a01b038816845282528083209390935560a29052205461222a908390614088565b6001600160a01b038416600081815260a260205260409081902092909255905133907f8a3c16627a0e7a870a5d5cd0121ca5d80e2efd0ec7198a11644f1a516ac370939061227b9086815260200190565b60405180910390a3610afe565b60405162461bcd60e51b815260206004820152602e60248201527f5761736e27742061626c6520746f2065786563757465207472616e736665722060448201526d6f6620796f757220746f6b656e7360901b606482015260840161023d565b604080516101a080820183526000808352602080840182905283850182905260608085018390526080850183905260a0850183905260c0850181905260e0850183905261010085015261012084018290526101408401829052610160840182905261018084018290526001600160a01b0387168252609f815284822086835290528390208351918201909352825491929091829060ff16600481111561239d57634e487b7160e01b600052602160045260246000fd5b60048111156123bc57634e487b7160e01b600052602160045260246000fd5b815260018201546020820152600282015460408201526003820154606082015260048201546001600160a01b03166080820152600582015460a082015260068201805460c09092019161240e906140e2565b80601f016020809104026020016040519081016040528092919081815260200182805461243a906140e2565b80156124875780601f1061245c57610100808354040283529160200191612487565b820191906000526020600020905b81548152906001019060200180831161246a57829003601f168201915b5050505050815260200160078201548152602001600882018054806020026020016040519081016040528092919081815260200182805480156124f357602002820191906000526020600020905b81546001600160a01b031681526001909101906020018083116124d5575b505050918352505060098201546001600160a01b03808216602084015260ff600160a01b92839004811615156040850152600a909401549081166060840152049091161515608090910152905092915050565b60006125528133610aa9565b506001600160a01b03909216600090815260a160205260409020600281019190915560030155565b60006125868133610aa9565b50609791909155609855565b3b151590565b6001600160a01b03808216600090815260a26020526040808220549285168252812054609d54606093916125cb91614088565b6125d59190614088565b6001600160a01b03808716600090815260a16020526040812060010154929350919086161561260c57612609600182614088565b90505b6001600160a01b0385161561262957612626600182614088565b90505b6000816001600160401b0381111561265157634e487b7160e01b600052604160045260246000fd5b60405190808252806020026020018201604052801561267a578160200160208202803683370190505b50905060005b81518110156129fa5784612692612f90565b61269c9190614138565b935060005b6001600160a01b038a16600090815260a160205260409020600101548110156129e7576001600160a01b038a8116600090815260a1602052604090206001018054918b16918390811061270457634e487b7160e01b600052603260045260246000fd5b6000918252602090912001546001600160a01b03161480159061277a57506001600160a01b038a8116600090815260a1602052604090206001018054918a16918390811061276257634e487b7160e01b600052603260045260246000fd5b6000918252602090912001546001600160a01b031614155b156129d5576001600160a01b038a16600090815260a16020526040902060010180546127da918591849081106127c057634e487b7160e01b600052603260045260246000fd5b6000918252602090912001546001600160a01b0316612b57565b6129d5576001600160a01b038a16600090815260a160205260408120600101805460a29291908490811061281e57634e487b7160e01b600052603260045260246000fd5b60009182526020808320909101546001600160a01b031683528201929092526040019020548511612963576001600160a01b038a16600090815260a16020526040902060010180548290811061288457634e487b7160e01b600052603260045260246000fd5b9060005260206000200160009054906101000a90046001600160a01b03168383815181106128c257634e487b7160e01b600052603260045260246000fd5b60200260200101906001600160a01b031690816001600160a01b03168152505060a2600060a160008d6001600160a01b03166001600160a01b03168152602001908152602001600020600101838154811061292d57634e487b7160e01b600052603260045260246000fd5b60009182526020808320909101546001600160a01b0316835282019290925260400190205461295c9087614088565b95506129e7565b6001600160a01b038a16600090815260a160205260408120600101805460a2929190849081106129a357634e487b7160e01b600052603260045260246000fd5b60009182526020808320909101546001600160a01b031683528201929092526040019020546129d29086614088565b94505b806129df8161411d565b9150506126a1565b50806129f28161411d565b915050612680565b50979650505050505050565b612a108282611a13565b610b8f57612a28816001600160a01b03166014612fcc565b612a33836020612fcc565b604051602001612a44929190613bee565b60408051601f198184030181529082905262461bcd60e51b825261023d91600401613d89565b612a748282611a13565b610b8f5760008281526065602090815260408083206001600160a01b03851684529091529020805460ff19166001179055612aac3390565b6001600160a01b0316816001600160a01b0316837f2f8788117e7eff1d82e926ec794901d17c78024a50270940304540a733656f0d60405160405180910390a45050565b612afa8282611a13565b15610b8f5760008281526065602090815260408083206001600160a01b0385168085529252808320805460ff1916905551339285917ff6391f5c32d9c69d2a47ea670b442974b53935d1edc7fd64eb21e047a839171b9190a45050565b6000805b8351811015612bc157826001600160a01b0316848281518110612b8e57634e487b7160e01b600052603260045260246000fd5b60200260200101516001600160a01b03161415612baf57600191505061080a565b80612bb98161411d565b915050612b5b565b5060009392505050565b6000805b8551811015612c7157846001600160a01b0316868281518110612c0257634e487b7160e01b600052603260045260246000fd5b60200260200101516001600160a01b03161415612c5f57612c238443614088565b612c2d8483614069565b11158015612c57575082612c418183614069565b612c4b919061403d565b612c558543614088565b105b915050612c77565b80612c698161411d565b915050612bcf565b50600090505b949350505050565b60006108078284614069565b60006108078284614055565b6001600160a01b038085166000908152609f6020908152604080832087845282528083206004810154909416835260a19091528120600201546003830154612ce59160649161127191612c7f565b6009830154600a840154919250600091612d0c916001600160a01b039081169116846131ad565b90508315612d35576009830154600a840154612d35916001600160a01b03908116911686613259565b84612db45760048301546001600160a01b0316600090815260a16020526040812060039081015490850154612d709160649161127191612c7f565b60048501546040519192506001600160a01b03169082156108fc029083906000818181858888f19350505050158015612dad573d6000803e3d6000fd5b5050612dfb565b866001600160a01b03166108fc828560030154612dd19190614088565b6040518115909202916000818181858888f19350505050158015612df9573d6000803e3d6000fd5b505b50505050505050565b600080805b6001600160a01b038516600090815260a36020526040902054811015612f3b576001600160a01b038516600090815260a360205260408120805483908110612e6157634e487b7160e01b600052603260045260246000fd5b60009182526020808320909101546001600160a01b0389811680855260a284526040808620549290931680865260a48552838620918652935290832054919350612ec09160649161127191612eb99190839085612c7f565b8990612c7f565b6001600160a01b03808416600090815260a460209081526040808320938c1683529290522054909150612ef4908290614088565b6001600160a01b03808416600090815260a460209081526040808320938c1683529290522055612f24818561403d565b935050508080612f339061411d565b915050612e09565b509392505050565b600054610100900460ff16612f6a5760405162461bcd60e51b815260040161023d90613ed6565b612f72613354565b612f7a613354565b612f82613354565b565b6000610807828461403d565b60004442604051602001612fae929190918252602082015260400190565b6040516020818303038152906040528051906020012060001c905090565b60606000612fdb836002614069565b612fe690600261403d565b6001600160401b0381111561300b57634e487b7160e01b600052604160045260246000fd5b6040519080825280601f01601f191660200182016040528015613035576020820181803683370190505b509050600360fc1b8160008151811061305e57634e487b7160e01b600052603260045260246000fd5b60200101906001600160f81b031916908160001a905350600f60fb1b8160018151811061309b57634e487b7160e01b600052603260045260246000fd5b60200101906001600160f81b031916908160001a90535060006130bf846002614069565b6130ca90600161403d565b90505b600181111561315e576f181899199a1a9b1b9c1cb0b131b232b360811b85600f166010811061310c57634e487b7160e01b600052603260045260246000fd5b1a60f81b82828151811061313057634e487b7160e01b600052603260045260246000fd5b60200101906001600160f81b031916908160001a90535060049490941c93613157816140cb565b90506130cd565b5083156108075760405162461bcd60e51b815260206004820181905260248201527f537472696e67733a20686578206c656e67746820696e73756666696369656e74604482015260640161023d565b6001600160a01b03808316600090815260a26020526040808220549286168252812054909182916132179160649161127191613210916131ec91612f84565b6001600160a01b038a16600090815260a26020526040902054611271906064612c7f565b8690612c7f565b905060006132258285614088565b90506000613233878461337b565b90506000613241878461337b565b905061324d818361403d565b98975050505050505050565b6001600160a01b03808316600090815260a2602052604080822054928616825281205490916132c291606491611271916132bb916132979190612f84565b6001600160a01b038916600090815260a26020526040902054611271906064612c7f565b8590612c7f565b905060006132d08284614088565b905060006132de868461348b565b905060006132ec868461348b565b6001600160a01b038816600090815260a2602052604081208054929350849290919061331990849061403d565b90915550506001600160a01b038616600090815260a260205260408120805483929061334690849061403d565b909155505050505050505050565b600054610100900460ff16612f825760405162461bcd60e51b815260040161023d90613ed6565b600080805b6001600160a01b038516600090815260a36020526040902054811015612f3b576001600160a01b038516600090815260a3602052604081208054839081106133d857634e487b7160e01b600052603260045260246000fd5b60009182526020808320909101546001600160a01b0389811680855260a284526040808620549290931680865260a485528386209186529352908320549193506134309160649161127191612eb99190839085612c7f565b6040519091506001600160a01b0383169082156108fc029083906000818181858888f19350505050158015613469573d6000803e3d6000fd5b50613474818561403d565b9350505080806134839061411d565b915050613380565b600080805b6001600160a01b038516600090815260a36020526040902054811015612f3b576001600160a01b038516600090815260a3602052604081208054839081106134e857634e487b7160e01b600052603260045260246000fd5b60009182526020808320909101546001600160a01b0389811680855260a284526040808620549290931680865260a485528386209186529352908320549193506135409160649161127191612eb99190839085612c7f565b6001600160a01b03808416600090815260a460209081526040808320938c16835292905220549091506135739082612f84565b6001600160a01b03808416600090815260a460209081526040808320938c16835292905220556135a3818561403d565b9350505080806135b29061411d565b915050613490565b82805482825590600052602060002090810192821561360f579160200282015b8281111561360f57825182546001600160a01b0319166001600160a01b039091161782556020909201916001909101906135da565b5061361b9291506136ec565b5090565b82805461362b906140e2565b90600052602060002090601f01602090048101928261364d576000855561360f565b82601f1061366657805160ff191683800117855561360f565b8280016001018555821561360f579182015b8281111561360f578251825591602001919060010190613678565b50805461369f906140e2565b6000825580601f106136b157506136cf565b601f0160209004906000526020600020908101906136cf91906136ec565b50565b50805460008255906000526020600020908101906136cf91905b5b8082111561361b57600081556001016136ed565b600082601f830112613711578081fd5b813560206001600160401b0382111561372c5761372c614178565b8160051b61373b82820161400d565b838152828101908684018388018501891015613755578687fd5b8693505b858410156129fa57803561376c8161418e565b835260019390930192918401918401613759565b600060208284031215613791578081fd5b81356108078161418e565b600080604083850312156137ae578081fd5b82356137b98161418e565b915060208301356137c98161418e565b809150509250929050565b6000806000606084860312156137e8578081fd5b83356137f38161418e565b925060208401356138038161418e565b915060408401356001600160401b0381111561381d578182fd5b61382986828701613701565b9150509250925092565b60008060408385031215613845578182fd5b82356138508161418e565b946020939093013593505050565b600080600060608486031215613872578283fd5b833561387d8161418e565b9250602084013591506040840135613894816141a3565b809150509250925092565b600080600080606085870312156138b4578081fd5b84356138bf8161418e565b93506020850135925060408501356001600160401b03808211156138e1578283fd5b818701915087601f8301126138f4578283fd5b813581811115613902578384fd5b886020828501011115613913578384fd5b95989497505060200194505050565b600080600060608486031215613936578283fd5b83356139418161418e565b9250602084810135925060408501356001600160401b0380821115613964578384fd5b818701915087601f830112613977578384fd5b81358181111561398957613989614178565b61399b601f8201601f1916850161400d565b915080825288848285010111156139b0578485fd5b808484018584013784848284010152508093505050509250925092565b6000806000606084860312156139e1578283fd5b83356139ec8161418e565b95602085013595506040909401359392505050565b6000806000606084860312156139e1578081fd5b600060208284031215613a26578081fd5b81356001600160401b03811115613a3b578182fd5b612c7784828501613701565b600060208284031215613a58578081fd5b8151610807816141a3565b600060208284031215613a74578081fd5b5035919050565b60008060408385031215613a8d578182fd5b8235915060208301356137c98161418e565b600060208284031215613ab0578081fd5b81356001600160e01b031981168114610807578182fd5b60008060408385031215613ad9578182fd5b50508035926020909101359150565b600080600060608486031215613afc578081fd5b833592506020840135915060408401356138948161418e565b6001600160a01b03169052565b6000815180845260208085019450808401835b83811015613b5a5781516001600160a01b031687529582019590820190600101613b35565b509495945050505050565b6000815480845260208085019450838352808320835b83811015613b5a5781546001600160a01b031687529582019560019182019101613b7b565b60058110613bbe57634e487b7160e01b600052602160045260246000fd5b9052565b60008151808452613bda81602086016020860161409f565b601f01601f19169290920160200192915050565b600076020b1b1b2b9b9a1b7b73a3937b61d1030b1b1b7bab73a1604d1b82528351613c2081601785016020880161409f565b7001034b99036b4b9b9b4b733903937b6329607d1b6017918401918201528351613c5181602884016020880161409f565b01602801949350505050565b6000602082526108076020830184613b65565b600060408252613c836040830185613b65565b8281036020840152613c958185613bc2565b95945050505050565b600060408252613cb16040830185613b65565b60208382038185015282855484600182811c915080831680613cd457607f831692505b858310811415613cf257634e487b7160e01b88526022600452602488fd5b828752602087019650808015613d0f5760018114613d2057613d4a565b60ff19851688528688019550613d4a565b60008b815260209020895b85811015613d445781548a820152908401908801613d2b565b89019650505b50939a9950505050505050505050565b60006020825282602083015282846040840137818301604090810191909152601f909201601f19160101919050565b6000602082526108076020830184613bc2565b6020808252602f908201527f4f6e6c792076616c696461746f722077697468207374616b65732063616e206360408201526e185b1b081d1a1a5cc81b595d1a1bd9608a1b606082015260800190565b6020808252602d908201527f43616e6e6f74206163636570742076616c69646174696f6e2c20796f7520617260408201526c65206f7574206f662074696d6560981b606082015260800190565b6020808252603f908201527f596f75722061646472657373206973206e6f742077686974656c69737465642060408201527f696e207468652070726f6475637420736572766963652073657474696e677300606082015260800190565b60208082526021908201527f4f6e6c7920736572766963652063616e2063616c6c2074686973206d6574686f6040820152601960fa1b606082015260800190565b6020808252602b908201527f496e697469616c697a61626c653a20636f6e7472616374206973206e6f74206960408201526a6e697469616c697a696e6760a81b606082015260800190565b600060208252613f35602083018451613ba0565b6020830151604083015260408301516060830152606083015160808301526080830151613f6560a0840182613b15565b5060a083015160c083015260c08301516101a08060e0850152613f8c6101c0850183613bc2565b915060e0850151610100818187015280870151915050610120601f198685030181870152613fba8483613b22565b935080870151915050610140613fd281870183613b15565b8601519050610160613fe78682018315159052565b8601519050610180613ffb86820183613b15565b90950151151593019290925250919050565b604051601f8201601f191681016001600160401b038111828210171561403557614035614178565b604052919050565b600082198211156140505761405061414c565b500190565b60008261406457614064614162565b500490565b60008160001904831182151516156140835761408361414c565b500290565b60008282101561409a5761409a61414c565b500390565b60005b838110156140ba5781810151838201526020016140a2565b838111156113a25750506000910152565b6000816140da576140da61414c565b506000190190565b600181811c908216806140f657607f821691505b6020821081141561411757634e487b7160e01b600052602260045260246000fd5b50919050565b60006000198214156141315761413161414c565b5060010190565b60008261414757614147614162565b500690565b634e487b7160e01b600052601160045260246000fd5b634e487b7160e01b600052601260045260246000fd5b634e487b7160e01b600052604160045260246000fd5b6001600160a01b03811681146136cf57600080fd5b80151581146136cf57600080fdfede23c39256eb8276bf5f5a3b3654613cb6dc5d9a36e408f3ad61e531217b0d895c2cc6518d5891ba2f9c21f49d712982ba12450a2a8adeb21e4a41f85a995b709829c39553001f6f75967caf0b4a8a903f5332af8a010a6b7e8532b7ed023f512ec6ff0a3927bfb55544f85fb0e2367f025ffb0b469ec8276385f8e569e0376ea2646970667358221220b39d2d6d549ec57a4021ca339ba2014c3d491f2ab19a465106823088ae83c6a864736f6c63430008030033",
    "linkReferences": {},
    "deployedLinkReferences": {}
}